{
  "contractName": "Campaign",
  "abi": [
    {
      "constant": true,
      "inputs": [
        {
          "name": "",
          "type": "address"
        }
      ],
      "name": "approvers",
      "outputs": [
        {
          "name": "",
          "type": "bool"
        }
      ],
      "payable": false,
      "stateMutability": "view",
      "type": "function"
    },
    {
      "constant": true,
      "inputs": [],
      "name": "manager",
      "outputs": [
        {
          "name": "",
          "type": "address"
        }
      ],
      "payable": false,
      "stateMutability": "view",
      "type": "function"
    },
    {
      "constant": true,
      "inputs": [
        {
          "name": "",
          "type": "uint256"
        }
      ],
      "name": "requests",
      "outputs": [
        {
          "name": "description",
          "type": "string"
        },
        {
          "name": "value",
          "type": "uint256"
        },
        {
          "name": "recipient",
          "type": "address"
        },
        {
          "name": "complete",
          "type": "bool"
        },
        {
          "name": "approvalCount",
          "type": "uint256"
        }
      ],
      "payable": false,
      "stateMutability": "view",
      "type": "function"
    },
    {
      "constant": true,
      "inputs": [],
      "name": "approversCount",
      "outputs": [
        {
          "name": "",
          "type": "uint256"
        }
      ],
      "payable": false,
      "stateMutability": "view",
      "type": "function"
    },
    {
      "constant": true,
      "inputs": [],
      "name": "minimumContribution",
      "outputs": [
        {
          "name": "",
          "type": "uint256"
        }
      ],
      "payable": false,
      "stateMutability": "view",
      "type": "function"
    },
    {
      "inputs": [
        {
          "name": "minimum",
          "type": "uint256"
        },
        {
          "name": "creator",
          "type": "address"
        }
      ],
      "payable": false,
      "stateMutability": "nonpayable",
      "type": "constructor"
    },
    {
      "constant": false,
      "inputs": [],
      "name": "contribute",
      "outputs": [],
      "payable": true,
      "stateMutability": "payable",
      "type": "function"
    },
    {
      "constant": false,
      "inputs": [
        {
          "name": "description",
          "type": "string"
        },
        {
          "name": "value",
          "type": "uint256"
        },
        {
          "name": "recipient",
          "type": "address"
        }
      ],
      "name": "createRequest",
      "outputs": [],
      "payable": false,
      "stateMutability": "nonpayable",
      "type": "function"
    },
    {
      "constant": false,
      "inputs": [
        {
          "name": "index",
          "type": "uint256"
        }
      ],
      "name": "approveRequest",
      "outputs": [],
      "payable": false,
      "stateMutability": "nonpayable",
      "type": "function"
    },
    {
      "constant": false,
      "inputs": [
        {
          "name": "index",
          "type": "uint256"
        }
      ],
      "name": "finalizeRequest",
      "outputs": [],
      "payable": false,
      "stateMutability": "nonpayable",
      "type": "function"
    },
    {
      "constant": true,
      "inputs": [],
      "name": "getSummary",
      "outputs": [
        {
          "name": "",
          "type": "uint256"
        },
        {
          "name": "",
          "type": "uint256"
        },
        {
          "name": "",
          "type": "uint256"
        },
        {
          "name": "",
          "type": "uint256"
        },
        {
          "name": "",
          "type": "address"
        }
      ],
      "payable": false,
      "stateMutability": "view",
      "type": "function"
    },
    {
      "constant": true,
      "inputs": [],
      "name": "getRequestsCount",
      "outputs": [
        {
          "name": "",
          "type": "uint256"
        }
      ],
      "payable": false,
      "stateMutability": "view",
      "type": "function"
    }
  ],
  "bytecode": "0x608060405234801561001057600080fd5b50604051610bf1380380610bf18339818101604052604081101561003357600080fd5b50805160209091015160008054600160a060020a03909216600160a060020a0319909216919091179055600155610b828061006f6000396000f3fe6080604052600436106100b9576000357c01000000000000000000000000000000000000000000000000000000009004806381d12c581161008157806381d12c58146101d257806382fde093146102a65780638a9cfd55146102bb578063937e09b11461037c578063d7bb99ba14610391578063d7d1bbdb14610399576100b9565b806303441006146100be5780630a144391146100ea5780633410452a146101315780634051ddac14610158578063481c6a75146101a1575b600080fd5b3480156100ca57600080fd5b506100e8600480360360208110156100e157600080fd5b50356103c3565b005b3480156100f657600080fd5b5061011d6004803603602081101561010d57600080fd5b5035600160a060020a0316610558565b604080519115158252519081900360200190f35b34801561013d57600080fd5b5061014661056d565b60408051918252519081900360200190f35b34801561016457600080fd5b5061016d610574565b604080519586526020860194909452848401929092526060840152600160a060020a03166080830152519081900360a00190f35b3480156101ad57600080fd5b506101b6610591565b60408051600160a060020a039092168252519081900360200190f35b3480156101de57600080fd5b506101fc600480360360208110156101f557600080fd5b50356105a0565b604051808060200186815260200185600160a060020a0316600160a060020a0316815260200184151515158152602001838152602001828103825287818151815260200191508051906020019080838360005b8381101561026757818101518382015260200161024f565b50505050905090810190601f1680156102945780820380516001836020036101000a031916815260200191505b50965050505050505060405180910390f35b3480156102b257600080fd5b5061014661068a565b3480156102c757600080fd5b506100e8600480360360608110156102de57600080fd5b8101906020810181356401000000008111156102f957600080fd5b82018360208201111561030b57600080fd5b8035906020019184600183028401116401000000008311171561032d57600080fd5b91908080601f0160208091040260200160405190810160405280939291908181526020018383808284376000920191909152509295505082359350505060200135600160a060020a0316610690565b34801561038857600080fd5b506101466107f8565b6100e86107fe565b3480156103a557600080fd5b506100e8600480360360208110156103bc57600080fd5b503561086a565b600054600160a060020a0316331461040f5760405160e560020a62461bcd028152600401808060200182810382526031815260200180610a546031913960400191505060405180910390fd5b60006004828154811061041e57fe5b9060005260206000209060050201905060026003548161043a57fe5b0481600301541161047f5760405160e560020a62461bcd02815260040180806020018281038252603c815260200180610b12603c913960400191505060405180910390fd5b600281015474010000000000000000000000000000000000000000900460ff16156104de5760405160e560020a62461bcd028152600401808060200182810382526027815260200180610a856027913960400191505060405180910390fd5b60028101546001820154604051600160a060020a039092169181156108fc0291906000818181858888f1935050505015801561051e573d6000803e3d6000fd5b50600201805474ff000000000000000000000000000000000000000019167401000000000000000000000000000000000000000017905550565b60026020526000908152604090205460ff1681565b6004545b90565b6001546004546003546000549293303193600160a060020a031690565b600054600160a060020a031681565b600481815481106105ad57fe5b60009182526020918290206005919091020180546040805160026001841615610100026000190190931692909204601f8101859004850283018501909152808252919350918391908301828280156106465780601f1061061b57610100808354040283529160200191610646565b820191906000526020600020905b81548152906001019060200180831161062957829003601f168201915b505050506001830154600284015460039094015492939092600160a060020a03821692507401000000000000000000000000000000000000000090910460ff169085565b60035481565b600054600160a060020a031633146106dc5760405160e560020a62461bcd028152600401808060200182810382526031815260200180610a546031913960400191505060405180910390fd5b6106e461095e565b506040805160a0810182528481526020808201859052600160a060020a0384169282019290925260006060820181905260808201819052600480546001810180835591909252825180519394919385936005027f8a35acfbc15ff81a39ae7d344fd709f28e8600b4aa8c65c6b64bfe7fe36bd19b0192610768928492910190610998565b5060208201516001820155604082015160028201805460608501511515740100000000000000000000000000000000000000000274ff000000000000000000000000000000000000000019600160a060020a0390941673ffffffffffffffffffffffffffffffffffffffff1990921691909117929092169190911790556080909101516003909101555050505050565b60015481565b6001543410156108425760405160e560020a62461bcd028152600401808060200182810382526023815260200180610a316023913960400191505060405180910390fd5b336000908152600260205260409020805460ff19166001908117909155600380549091019055565b60006004828154811061087957fe5b6000918252602080832033845260029091526040909220546005909102909101915060ff166108dc5760405160e560020a62461bcd028152600401808060200182810382526038815260200180610ada6038913960400191505060405180910390fd5b33600090815260048201602052604090205460ff16156109305760405160e560020a62461bcd02815260040180806020018281038252602e815260200180610aac602e913960400191505060405180910390fd5b3360009081526004820160205260409020805460ff1916600190811790915560039091018054909101905550565b6040518060a0016040528060608152602001600081526020016000600160a060020a03168152602001600015158152602001600081525090565b828054600181600116156101000203166002900490600052602060002090601f016020900481019282601f106109d957805160ff1916838001178555610a06565b82800160010185558215610a06579182015b82811115610a065782518255916020019190600101906109eb565b50610a12929150610a16565b5090565b61057191905b80821115610a125760008155600101610a1c56fe41206d696e756d756d20636f6e747269627574696f6e2069732072657175697265642e4f6e6c79207468652063616d706169676e206d616e616765722063616e2063616c6c20746869732066756e6374696f6e2e5468697320726571756573742068617320616c7265616479206265656e2066696e616c697a6564596f75206861766520616c726561647920766f74656420746f20617070726f7665207468697320726571756573744f6e6c7920636f6e7472696275746f72732063616e20617070726f76652061207370656369666963207061796d656e742072657175657374546869732072657175657374206e65656473206d6f726520617070726f76616c73206265666f72652069742063616e2062652066696e616c697a6564a265627a7a723058206851b8a65a28109fe92cc425fa57d20ade3b8bb2d16545eb359d52430878d02364736f6c63430005090032",
  "source": "// SPDX-License-Identifier: MIT\npragma solidity >=0.4.22 <0.8.0;\n\ncontract Campaign {\n    struct Request {\n        string description;\n        uint256 value;\n        address payable recipient;\n        bool complete;\n        uint256 approvalCount;\n        mapping(address => bool) approvals;\n    }\n\n    address public manager;\n    uint256 public minimumContribution;\n    mapping(address => bool) public approvers;\n    uint256 public approversCount;\n    Request[] public requests;\n\n    constructor(uint256 minimum, address creator) public {\n        manager = creator;\n        minimumContribution = minimum;\n    }\n\n    function contribute() public payable {\n        require(\n            msg.value >= minimumContribution,\n            \"A minumum contribution is required.\"\n        );\n        approvers[msg.sender] = true;\n        approversCount++;\n    }\n\n    function createRequest(\n        string memory description,\n        uint256 value,\n        address payable recipient\n    ) public onlyManager {\n        Request memory newRequest =\n            Request({\n                description: description,\n                value: value,\n                recipient: recipient,\n                complete: false,\n                approvalCount: 0\n            });\n        requests.push(newRequest);\n    }\n\n    function approveRequest(uint256 index) public {\n        Request storage request = requests[index];\n        require(\n            approvers[msg.sender],\n            \"Only contributors can approve a specific payment request\"\n        );\n        require(\n            !request.approvals[msg.sender],\n            \"You have already voted to approve this request\"\n        );\n\n        request.approvals[msg.sender] = true;\n        request.approvalCount++;\n    }\n\n    function finalizeRequest(uint256 index) public onlyManager {\n        Request storage request = requests[index];\n        require(\n            request.approvalCount > (approversCount / 2),\n            \"This request needs more approvals before it can be finalized\"\n        );\n        require(!(request.complete), \"This request has already been finalized\");\n\n        request.recipient.transfer(request.value);\n        request.complete = true;\n    }\n\n    function getSummary()\n        public\n        view\n        returns (\n            uint256,\n            uint256,\n            uint256,\n            uint256,\n            address\n        )\n    {\n        return (\n            minimumContribution,\n            address(this).balance,\n            requests.length,\n            approversCount,\n            manager\n        );\n    }\n\n    function getRequestsCount() public view returns (uint256) {\n        return requests.length;\n    }\n\n    modifier onlyManager() {\n        require(\n            msg.sender == manager,\n            \"Only the campaign manager can call this function.\"\n        );\n        _;\n    }\n}\n",
  "sourcePath": "/home/engrsunday/workspace/CrowdCoin/contracts/Campaign.sol",
  "compiler": {
    "name": "solc",
    "version": "0.5.9+commit.e560f70d.Emscripten.clang"
  },
  "schemaVersion": "3.3.1",
  "updatedAt": "2021-04-07T09:34:23.322Z",
  "networkType": "ethereum",
  "devdoc": {
    "methods": {}
  },
  "userdoc": {
    "methods": {}
  }
}